:020000040800F2
:10000000C0C60220814B0008954500086D4B0008D2
:100010006D4B00086D4B00086D4B000800000000A0
:10002000000000000000000000000000A54C0008D7
:100030006D4B0008000000003D4C0008A16900085D
:100040002D4E00082D4E00082D4E00082D4E0008A4
:100050002D4E00082D4E00082D4E00082D4E000894
:100060002D4E00082D4E00082D4E00082D4E000884
:100070002D4E00082D4E00082D4E00082D4E000874
:100080002D4E00082D4E00082D4E00082D4E000864
:100090002D4E00082D4E00082D4E00082D4E000854
:1000A0002D4E00082D4E00082D4E00082D4E000844
:1000B0002D4E00082D4E00082D4E00082D4E000834
:1000C0002D4E00082D4E00082D4E00082D4E000824
:1000D0002D4E00082D4E00082D4E00082D4E000814
:1000E0002D4E00082D4E00082D4E00082D4E000804
:1000F0002D4E00082D4E00082D4E00082D4E0008F4
:100100002D4E00082D4E00082D4E00082D4E0008E3
:100110002D4E00082D4E00082D4E00082D4E0008D3
:100120002D4E00082D4E00082D4E00082D4E0008C3
:100130002D4E00082D4E00082D4E00082D4E0008B3
:100140002D4E00082D4E00082D4E00082D4E0008A3
:100150002D4E00082D4E00082D4E00082D4E000893
:100160002D4E00082D4E00082D4E00082D4E000883
:100170002D4E00082D4E00082D4E00082D4E000873
:100180002D4E00082D4E00082D4E00082D4E000863
:100190002D4E00082D4E00082D4E00082D4E000853
:1001A0002D4E00082D4E00082D4E00082D4E000843
:1001B0002D4E00082D4E00082D4E00082D4E000833
:0801C0002D4E00082D4E000831
:1001C8007BB972B90029BEBF00204FF0004106E09C
:1001D80008BF00281CBF6FF000414FF0FF3000F04F
:1001E80057B8ADF1080C6DE904CE002909DB002BE6
:1001F8001ADB00F04FF8DDF804E0DDE9022304B073
:100208007047404261EB4101002B1BDB00F042F8D4
:10021800DDF804E0DDE9022304B0404261EB41016E
:10022800524263EB43037047524263EB430300F0CF
:1002380031F8DDF804E0DDE9022304B0404261EB67
:1002480041017047524263EB430300F023F8DDF8A5
:1002580004E0DDE9022304B0524263EB4303704734
:1002680053B94AB9002908BF00281CBF4FF0FF3115
:100278004FF0FF3000F00CB8ADF1080C6DE904CE7A
:1002880000F008F8DDF804E0DDE9022304B0704767
:10029800704700BF2DE9F04786468C460846089E01
:1002A800154674461946002B40F0C2808542B2FAC2
:1002B80082F245D94AB1C2F1200300FA02FC2EFAB3
:1002C80003F3954043EA0C0C94404FEA154EA8B24C
:1002D800BCFBFEF8230C0EFB18CC08FB00F943EA24
:1002E8000C43994528D9EB1808F1FF3704D29945F2
:1002F80002D9A8F102072B44A3EB0903A4B2B3FB6C
:10030800FEFC0EFB1C330CFB00F044EA0344A04245
:1003180014D92C190CF1FF3304D2A04202D9ACF144
:1003280002032C44241A43EA07401EB1D440002398
:1003380034607360BDE8F0874746DDE76346F1E760
:1003480092BB431B01214FEA154EAFB2B3FBFEFC33
:10035800200C0EFB1C330CFB07F840EA03439845BE
:1003680062D9EB180CF1FF3004D2984502D9ACF1F0
:1003780002002B44A3EB0803A4B2B3FBFEFC0EFB64
:100388001C330CFB07F744EA0344A7424ED92C1947
:100398000CF1FF3304D2A74202D9ACF102032C447A
:1003A800E41B43EA0040C0E7C2F1200320FA03F14E
:1003B800954090402EFA03F303434FEA154EAFB22F
:1003C800B1FBFEFC0EFB1C10190C0CFB07F841EAF4
:1003D8000041884504FA02F422D969180CF1FF306B
:1003E80004D2884502D9ACF102002944A1EB0801E6
:1003F8009BB2B1FBFEFC0EFB1C110CFB07F743EA9A
:1004080001439F420ED9EB180CF1FF3104D29F42F1
:1004180002D9ACF102012B44DB1B41EA004192E70F
:100428006046E3E76146F7E76046A3E76346B7E758
:10043800834206D916B9002108467BE7C6E900E0E1
:10044800F9E7B3FA83F78FB9834201D3724508D825
:10045800BEEB020460EB030301209C461EB9002199
:1004680068E73846FAE7C6E9004CF8E7C7F1200C18
:10047800BB4022FA0CF41C432EFA0CF120FA0CF3C0
:10048800B84001434FEA14490EFA07F5B3FBF9F8EF
:100498001FFA84FE09FB18300B0C08FB0EFA43EA1E
:1004A80000439A4502FA07F240D9E31808F1FF30F1
:1004B80004D29A4502D9A8F102002344A3EB0A0307
:1004C80089B2B3FBF9F809FB183308FB0EFE41EAC1
:1004D80003418E452CD9611808F1FF3304D28E45AB
:1004E80002D9A8F10203214443EA0040A0FB029884
:1004F800A1EB0E014145CE46434602D306D14D45F8
:1005080004D2B9EB020E68EB04030138002EA6D022
:10051800B5EB0E0261EB030101FA0CFC22FA07F3BA
:100528004CEA0303F940C6E9003198E74046C5E7BD
:100538004346D9E710F8012B11F8013B012A28BFDF
:100548009A42F7D0D01A7047034611F8012B03F8E6
:10055800012B002AF9D17047034613F8012B002A12
:10056800FBD1181A013870472DE9F04704468AB0C4
:10057800884617462FF00DFB0A220023FFF770FE6E
:10058800B8F1010F06460D4608D12B4ACDE9000106
:100598000821204620F0D4F8002012E07F68274880
:1005A8003946FFF7C7FF78B139462548FFF7C2FF3C
:1005B80050B120463B46234A012120F0C1F86FF094
:1005C80004000AB0BDE8F0873046294618A3D3E9ED
:1005D8000023FFF7F5FD06460D46104619461A4A50
:1005E8000023FFF7EDFD80460F46104619464EF6EC
:1005F80060220023FFF7E4FD82468946104619462B
:100608004FF47A720023FFF7DBFDCDE904A9CDE9A9
:100618000601CDE9082308210C4A2046CDE90287C6
:10062800CDE9006520F08CF8B6E700BFAFF3008095
:10063800005C260500000000C9290308DA29030820
:10064800DD290308E629030880EE3600FD290308A2
:1006580010B50D4C20462FF05AF8A0B100F016F84E
:1006680000F062F816F0F4FCA3685B680BB1204652
:1006780098470A2416F0ECFC20EAE07080FB04019D
:100688001DF054FEF6E710BD4403030837B516F015
:1006980001F80446052016F0A5FA0546002016F0D4
:1006A800A1FA0D4B0246294600932046012310F07B
:1006B80033FD0146204622F027F900F035F80020E6
:1006C80008F0DCFB054B1860054B186803B0BDE863
:1006D800304022F041B900BFCC190308B0CF012047
:1006E800BCCF012038B50C4D0C4C2B783BB90C48CD
:1006F80003F0D2FE83682060984701232B7020689E
:10070800084C237833B1C3689847237883F00103F2
:10071800237038BD0369F7E7D4A50220C0CF0120B4
:10072800000001205C02012070B500201E4D08F079
:10073800A5FB10211D4C286022F059FE286817F0EF
:1007480099FD6421206023F005FD2068322123F003
:1007580018FD2068092123F059FD20684FF48061B5
:1007680022F00FFE1021206822F041FE2868104D6B
:100778001AF056F842F2D171286023F0EBFC286891
:1007880042F2D17123F0FDFC2868092123F03EFDD7
:10079800286808492DF0DEFE002320681A4606491D
:1007A800BDE8704022F01DB9BCCF0120B8CF0120B0
:1007B800B4CF01200C260308C3F601082DE9F8433D
:1007C80080460F46154600F0ABF8C36804461BB9CF
:1007D80043691A78002A4CD10023E36063684345D3
:1007E80057F8232008DB3D4B6361204600F07EF874
:1007F8004FF0FF30BDE8F883511C616116782D2E4B
:10080800F1D1911C616151782D29A16004D19278B0
:1008180062B901336360E6E741B9304B3146284697
:1008280063612FF051FB0028DFD0A660D4F8089050
:10083800284649462FF048FBB9F13A0F626900D0C3
:10084800E0B9137813B963680133636023685BB157
:100858002B783A2B08D0224803685A0704D0214A3B
:100868004B4601211FF0B4FD204600F03FF83F2021
:10087800C0E75A1C42611B788360D7E743783A2B5C
:100888000BD000232361137813B9636801336360C5
:10089800204600F02BF8A068ACE7117866680F4B8B
:1008A80029B90136B045666004DD57F82620C4E949
:1008B8000423EAE763612D783A2D04D1204600F03D
:1008C80015F8284696E72368002BCDD0044803681E
:1008D8005B07C9D0044A4B46C3E700BF292B03086E
:1008E800F402012013260308282603080268074B90
:1008F8001A604268064B1A608268064B1A60C26822
:10090800054B1A600269054B1A60704724000120E4
:1009180020000120CCCF0120C8CF0120C4CF012066
:1009280000487047080001202DE9F34704680F4686
:1009380042480025A268214604F10C084FF001093D
:10094800B2FA82F6DFF8F8A0C6F1200633461FF0A7
:1009580078F93C481FF075F958F8040FC8B100231E
:100968000246194604EBC2020133B2F802C0D2882B
:100978004FEA5C0C614538BF61469042F2D1CA002B
:100988005046043ACDE9001209FA05F229461FF04B
:1009980058F90135AE42DFD10FB300252A4F2B4855
:1009A8001FF04FF9EE00294638460236A35B05EBE7
:1009B800530213F0010F4FEA5303019234F8352024
:1009C800A5EB020200920CBF2D222A221FF039F952
:1009D800A3689D4203D0A35B05EB5305E2E760885B
:1009E8000022A36840081146984217D3DC008B18F0
:1009F8004FF47A750434E31A600805FB03000A25EE
:100A0800B0FBF4F0B0FBF5F405FB1400CDE90040B1
:100A18000F481FF016F902B0BDE8F08704EBC005D7
:100A28006F887D08FF074FEAC5064CBF043A0439B2
:100A380028444CBF92198919D6E700BF51260308EC
:100A4800392703087E26030861270308532703086C
:100A58008F2703082DE9F04F91B0840705460E460D
:100A6800009302F00403DDF868900293C2F3C20316
:100A7800039203F10103059340F0BA81041D30B1DC
:100A8800072909D86FF01B0011B0BDE8F08F01F0FD
:100A98000706341DC6F10806009B4FF000084FF00A
:100AA800040A591E4FF0FF334746C3460193534685
:100AB800CDF810800DB1009A22600598002800F347
:100AC800E8809848009A824203D397488242C0F04F
:100AD800E080039AA4EB050E92074FEA9E0000F10E
:100AE80003810F2F00F2B180002D00F0058107F17E
:100AF80040020DEB020C019A0CF8200C0CF8102C9B
:100B0800049801300490E7E07A285DD84B280ED885
:100B1800472859D829282DD8252852D054D82028F4
:100B28007AD02338D0F1000B4BEB000B74E04C3833
:100B38002E2849D8DFE800F0704848484848484817
:100B4800484848484B484848484848484859484B06
:100B58004B595959704B6D487048184B1848488282
:100B68007F4B48484B487F0000204FF0000B4FF068
:100B7800040A38E02A380122C0B202FA00F010EA6A
:100B88000E0F49D110F0625C2FD110EA020B43D04E
:100B98006046013C5444B4FBFAF40AFB04F4002D0B
:100BA80061D0A3EB050CA444B4453FF66BAF002815
:100BB80068D1042B47D159F8043B2360043404233B
:100BC8002AE0019A013A01924FF0000B24E011F853
:100BD800010C6C2834D111F8023C00206C2B8346A0
:100BE800C5D14FF0080A5346D3E709F1070907347E
:100BF80029F0070924F00704F9E802AB35B1069893
:100C08002044B0423FF63EAFC4E900AB08344FF091
:100C1800000B4FF0080A534611F8010F002878D04E
:100C2800BBF1000F7FF470AF2528F5D1019B4FF081
:100C3800010B013301934FF0040AECE7584694E79F
:100C480000208346A5E7082B02D06FF015001BE7AC
:100C580009F1070929F00709F9E80223C4E9002383
:100C680008340823D8E768B9042B02D109F104092C
:100C7800A4E7082BE9D109F1070929F0070909F1C7
:100C88000809EDE7059A013A059259F8042B0092F4
:100C980010E7039A900720D5A4EB050E4FF0010C3E
:100CA8004FEA9E00BEF5007FCFD20F2FCDD8F5B109
:100CB80007F14002C0B20DEB020E019A0EF8200CAB
:100CC8000EF8102CBCF1000F3FF41AAF60F07F0053
:100CD80008F101080EF8200C0137C5F108020434A8
:100CE8004FF6DA7E069297E74FF0000CDAE7BCF190
:100CF800000F01D00136EFE7029802360028EBD149
:100D08000098CDE90631FFF727FC0644DDE90631F6
:100D1800E2E7631BB3F5806F97D23DB9A6F10804EB
:100D2800E018B1E6A4000308D07D03089B08029AE6
:100D380028602B709DF81030C2B1EB7085F80280E6
:100D4800B8F1000F05D008A80022C5F1010C9742A0
:100D58000ED1C5F101030DF120094FF0000A0DF184
:100D6800300B0193574512D1601B8DE66B70E5E798
:100D780010F8013B190608D504EB0C0E03F07F03AD
:100D8800B6453FF67FAE04F8013B0132DFE7B8F124
:100D9800000F03D099F90020002A17DB029BD3B17A
:100DA8001AF80B2004F8012B0022019B9818204404
:100DB800B0423FF667AE99F80000009904F8010BBD
:100DC800204603922FF028F9039A14440AF1010AE5
:100DD80009F10109C6E799F8002055F82230009377
:100DE800029B009845F82230FFF7B6FB421CDCE76F
:100DF8006FF00D0048E600BF2DE9F04F97B00446AC
:100E0800894600AF90F802A0D7F880B03B62CBF3D8
:100E1800C003FA62BB6141B9457800780AEB8000EB
:100E280020444D4517D8A0EB0409E378FB61BAF1DB
:100E3800000F02D01BF0010F16D1FB6953BBFB6AF0
:100E48001BB13A6A4946204698474D4628465C37C2
:100E5800BD46BDE8F08F461C09F101093046FFF791
:100E68007BFB01303044DCE72378626899007A62C2
:100E7800FA6A796104EB8301002A40F004814D4647
:100E88000E4601EB0A094FF000084E4550D101EB20
:100E98000A0610E01BF0020FD1D023789A0004EB69
:100EA80083017A6162687A62FA6A002A7BD14D46C8
:100EB80001EB0A0690461BF0050F0CBF0223012325
:100EC800FB62FB6906EB430A0BF00203BB62564563
:100ED800BCD016F8021B16F8013C54F823909B4B23
:100EE800994502D39A4B99453AD3BB69002B44D014
:100EF800786A1EF07FFE00283FD09648036813F0FA
:100F0800060F13D0E9468AB06A46934B53617B6A51
:100F1800C2E906314FF400731384904B42F8103F36
:100F280000234FF4125100F01BFDCD46023DCEE7E1
:100F380016F8013BF96254F82300FFF70DFBD7F8C8
:100F480084300130F96A4BB1D7F8883098453EBFF4
:100F5800D7F8843023F8180008F10108054494E70D
:100F6800BB6923B1786A1EF045FE0028C5D11BF085
:100F7800010F05D1FB6AED1AA9E7BB6A002BA6D0C1
:100F88004846FFF7E9FAD7F8843053B1D7F88830E4
:100F980098453FBF431CD7F8842022F8183008F141
:100FA8000108054493E7BAF1000F72D01BF004065C
:100FB80072D0D046002607F1480052463B61B9621C
:100FC8002FF02AF8B96A3B6901EB0A02F969BA629B
:100FD800FA695200FA60BA6A02EB41023A610BF010
:100FE8000202BA603A69B96A8A4257D11BF0020F05
:100FF80062780CBF4FEA580100217A621BF0010F9A
:101008003244D2B240F09F801BF0040F14BF404618
:101018000020BB616270A0702046E1703A6A79696D
:10102800FB6A9847051EFFF611AFBB6941463A6A4D
:1010380007F1480023707B6A84F802A06370FB699B
:10104800E370FB6A9847B0F10008C0F2B5807B698D
:10105800A9EB0A013A6AC91AFB68C91AD7E90A034F
:1010680098470028C0F2AA80A8444FF0000B07F167
:10107800380A08EB0005B34572D300213A6AFB6AC7
:1010880008469847E2E656464FF0000807F1380050
:1010980093E75646D04697E7B04695E7BA6A12F8FE
:1010A800021B12F8015CBA6254F82500274A9042E4
:1010B80002D3274A90421ED3BA6932B1786A7B605C
:1010C8001EF098FD7B6800288CD1BA6802BB08F135
:1010D800280207F1300C08F1010008F102089444D5
:1010E80007F158025FFA88F852FA80F00CF8101CE1
:1010F80000F8105C76E7BA693AB1786A7B601EF04E
:1011080079FD7B6800287FF46DAF1BF0010F09D0D3
:1011180006F1280207F13000711C161806F8205C49
:10112800CEB25FE71BF0040F3FF45CAF08F1280272
:1011380007F1300008F1010102EB000808F8105C23
:101148005FFA81F84EE7002063E700BFA4000308B8
:10115800D07D0308E8020120D72703080400000116
:101168001BF80A3054F8239087F83730D7F88430C2
:10117800FBB133F81B803A6A012107F13700FB6A9B
:10118800984700281ADB0544B8F1000F06D14846F5
:10119800FFF7E2F900F101081FFA88F83A6A4146B8
:1011A8004846FB6A9847002808DB05440BF1010B09
:1011B80061E7D7F88480DEE7454647E6054645E619
:1011C800014B1860704700BF2800012080B5054614
:1011D8000E46174698461DF0C5F8DFF820900346DE
:1011E8002EF052FF0446424649F800303946304650
:1011F800A84754F8090003F0EDFC00BF0800000000
:10120800044608B54FF01002EFF3118382F31288F9
:10121800BFF36F8F21F038F9204603F0C9FC03486B
:101228001EF00FFD03F0E4FDFCE700BF8B28030868
:10123800044A0020136843F400731360024B034A06
:101248001A607047003C0240B80101200024F400F5
:10125800034A0020536823F002035360704700BF1D
:10126800002004E02DE9F047044607464FF0010945
:10127800DFF8508014B93846BDE8F08794FAA4F531
:10128800B5FA85F509FA05F32E0108EB05156FEA9D
:10129800030A24EA03042B7B002BEBD058F8063012
:1012A8001B694BB946440422284607EA0A077368B3
:1012B800196800F015FBDDE7284698470028D9D1C2
:1012C800F0E700BF7007030830B5002289B00F4966
:1012D8000F482EF060FC0022002300240D4D0E491B
:1012E80028460094CDE906230E234FF44072CDE939
:1012F8000334CDE90144094B1CF0A4FC08492846F5
:101308001CF0D8FB204609B030BD00BF2D130008E3
:1013180068080120A803012040A702203916000808
:10132800B428030801481DF09DB900BF90030120AF
:101338002DE9F04780461E480F461EF09EFF0646E0
:1013480078B300252846BDE8F087237B73B123686E
:10135800DB680BB12046984723681B69CBB96368E3
:1013680004222046196800F0BBFA013610344C45B7
:10137800EBD3B8F1000FE5D0002DE2D02846FFF7F7
:1013880071FF0546002FF7D0002164201CF0CEFF26
:10139800F2E7204698470028E1D00AFA06F31D43F1
:1013A800E3E7044C0546DFF810904FF0010ADEE74A
:1013B800E0CF0120700703088007030808B503463B
:1013C80008462BB1044A136000F070FD002008BDE8
:1013D8006FF01500FBE700BF2C00012010B5044C8E
:1013E800237813B903481DF03DF90123237010BD7C
:1013F800D5A502209003012010B5044608481EF028
:101408003CFF5CB1074BBFF35B8F53E8001F01390A
:1014180043E80012002AF8D1BFF35B8F10BD00BF6C
:10142800D8CF0120DCCF01200020064BBFF35B8F13
:10143800014653E8000F43E80012002AF9D1BFF330
:101448005B8F7047D8CF012070B5FFF7EDFF084CD0
:101458000546084EB44200D370BD63685B792BB172
:1014680023685B6813B12946204698471034F1E792
:10147800700703088007030810B5044C0449204688
:101488001EF0E6FC034B1C6010BD00BFA00201204B
:1014980054080308D0CF012008B5094A00234FF4A7
:1014A8007A7108481370084A1360084A1360FFF7F6
:1014B80085FFFFF7E1FFBDE8084000F067B900BF0E
:1014C800D6A502209D020208D8CF0120DCCF01203A
:1014D80001460022002301481EF0DBBCA0020120C7
:1014E80001481EF074BD00BFA0020120024B014656
:1014F80018681EF0BEBD00BFD0CF012001481EF005
:10150800F4BD00BFA0020120F8B5314B18780028BF
:101518005DD0FFF7E5FF044690B12E4BBFF35B8F1C
:1015280053E8001F013943E80012002AF8D12A4D78
:10153800BFF35B8F294EB54226D32046FFF7D6FF6F
:10154800274B284C1B68002B12DD2EF022FB0A22A9
:101558000023FEF785FED4E90032C01A40F2E933D1
:1015680061EB0201984271F1000101D3FFF76CFFB2
:10157800D4E9003213F57A7342F10002C4E900326B
:10158800BDE8F840FFF7BABF6B685B793BB12178DB
:101598004B0706D52B68214628461B689847103507
:1015A800C9E72388C1F3C201626813F4E07FC3F37B
:1015B8008217EFD0002AEDD00B4B2846D21A012310
:1015C80042F38F0200F0A6F9B842E8D3E2E7F8BD8B
:1015D800D5A50220DCCF0120700703088007030887
:1015E800D8CF012060080120E402012070B50D4D1C
:1015F800297861B90C4C01200C4EFFF799FEB442D2
:1016080006D3FFF781FF0028FBD101232B7070BDA3
:1016180063685B791BB1236820469B689847103440
:10162800EDE700BFD6A5022070070308800703086E
:1016380000212DE9F0470846FFF77AFE044658B323
:101648004FF4FA784FF000091C4B2EF01DFD1C4A90
:101658001B58136033B11B4B1B68092B02DD1A485A
:101668001DF000F80025194FDFF85CA044B12046B2
:10167800FFF7F8FD044618B94FF0FF384FF0FF396F
:10168800FFF742FF064628B9B5B942464B465046D1
:101698001DF00EF83546E9E74FF0FF384FF0FF39F7
:1016A800D2E72B689B691BB1002228461146984750
:1016B8001035BD42F5D3E8E7054DFAE7080000000C
:1016C800D4CF0120DCCF012090030120800703083C
:1016D8007007030813B518481EF0CFFD174B1B7889
:1016E8007BB14FF01003EFF3118483F31288BFF33B
:1016F8006F8FFFF709FF84F31188BFF36F8F02B074
:1017080010BD0F4B1B68002BF9D050B900220023E5
:101718000C48CDE9002342F2107200231DF05EFB55
:10172800EDE70928EBD107482EF041FA064802B048
:10173800BDE810401CF096BFDCCF0120D6A50220E2
:10174800D4CF01206808012090030120064B10B572
:1017580004461B6898472146A06004481EF017FC01
:10176800BDE81040FFF7B6BF2C000120A002012001
:10177800044A054B9B1AB1EBD30F34BF52F8310022
:1017880000207047D8060308700703080B4800219B
:101798000B4B1B1A043030B5DB080A4C994200D1B8
:1017A80030BD10F831200131256802F0070225F01C
:1017B80007052A4344F8042BF0E700BFD8060308BE
:1017C80070070308E4020120F8B50B4F06460B4DDD
:1017D8000024ED1BED08AC4203D14FF0FF34204646
:1017E800F8BD57F8340020B13146FEF7A3FE0028B3
:1017F800F5D00134EFE700BFD806030870070308E7
:1018080000282DE9F843884615461F4617DA234E67
:101818004FF00009224B4C46F61A3609B14502D161
:101828002046BDE8F88348463B462A464146FFF72E
:10183800E7FF844209F1010938BF0446EEE7194B76
:10184800194AD21AB5EBD20F25D203EBC5031C797E
:10185800BC4228BF3C46C0B20722144E002100EB10
:10186800400056F82530824023EA020304F00702BC
:1018780082401343032223FA02F0033200F00700E8
:10188800814238BF01461E2AF5D123F007030B43D6
:1018980046F82530C4E70024DDE700BF80070308C9
:1018A80070070308D806030870070308E40201203C
:1018B800F8B5094D0646094B0F460024ED1AED0808
:1018C800AC4200D3F8BD22B201343B460021304679
:1018D800A4B21EF0FAFCF3E770070308D806030861
:1018E80038B50B4B0D4611464268C31A04461B1106
:1018F8000133137143689971FFF7DAFF63680122B6
:101908001D6063685A71BDE83840FFF767BD00BFC6
:101918007007030870B14168097973B1002A17DBB1
:10192800CBB20C4903EB430351F82200D84000F036
:10193800070070474FF0FF31EFE707490748401AA3
:10194800B2EBD00F3ABF01EBC201087918467047D5
:1019580004207047E4020120D80603087007030832
:101968002DE9F04F8FB0C1F34A280D46914604AFD8
:101978000C0DB8607B60B8F1000F67D0002607F146
:1019880014034FF0040B4FF00A0AC7F80C803246D4
:101998007E624846C7E90766019307F11C03CDF844
:1019A80008B0CDF800A0F968FFF726FAB0F5006F87
:1019B800034620D32A48036813F0060F17D06C4655
:1019C8008AB0D9F8041004AB264D1A46C3E905516C
:1019D80040F2FF71D9614FF400711984224B42F82B
:1019E800103F4FF412513346FFF7BAFFA5462C3784
:1019F800BD46BDE8F08FC0F30A0804F117003B604C
:101A0800184468F3532520F007008008FFF760FDAD
:101A1800044690B13B6800F11001144A4846F96148
:101A2800C7E9083607F11403CDF808B0CDE900A3DB
:101A380007F11C03F968FFF7DFF968F353257B68A2
:101A4800B96820462A461EF06AFCD0E704F1170060
:101A580020F007008008FFF73BFD0446EDE700BFD4
:101A68000C030120C928030804000001FB02020836
:101A78002DE9F04F87B004460F4693469846DDE9B6
:101A88001269DDE9105AA6B31021334652460020E8
:101A9800CDF80090CDF81490FEF7DCFF014604F075
:101AA800070405F117000BF0070B134BE40008447B
:101AB80003EA4123039144EA8B1420F007001C43F6
:101AC8008008FFF705FD44EA0554054640B13EB1DC
:101AD8003346524603991030CDF80090FEF7BAFF0E
:101AE800434622463946284607B0BDE8F04F1EF067
:101AF80016BC3146D3E700BF00FE0F000EB403B595
:101B080003AB0146054853F8042B019303F024FB6B
:101B180002B05DF804EB03B0704700BF3904020857
:101B2800CA0605D48B064CBF02490349FFF7E6BF36
:101B3800704700BF282B0308082903082DE9F04F38
:101B480089B09A4604460D469DF84CB0179E0692F9
:101B5800DDE914730593169B0493BBF1000F00F0A5
:101B6800858006F0080306F0020907931EF0ABFB18
:101B78000246002849D086492046FFF7BFFF804625
:101B8800B9F1000F08D016F0440F40D12A46814918
:101B98002046FFF7B3FF804406F0010353B17E4BA4
:101BA80020467E4953F82B207D4B002A08BF1A4651
:101BB800FFF7A4FF06F00803002B54D0794B20460A
:101BC800794953F82B20FFF799FF0546069B2BB15F
:101BD8001A4676492046FFF791FF0544BAF1000FEF
:101BE80005D0524672492046FFF788FF0544454410
:101BF800002F49D1049B002B4FD1F30700F1C1807E
:101C080031462046FFF78CFFB5E08046B8E7694BC0
:101C180018680028BFD0684B4FF47A794FF4616197
:101C28004FF03C0C1B68B5FBF3F5B5FBF0F300FB7C
:101C3800135509FB05F5B3FBF1F2B5FBF0FE01FB0B
:101C4800123100FB1E55B1FBFCF309FB05F50CFB3B
:101C58001311B5FBF0F5009120465849CDE901E58F
:101C6800FFF74CFF97E706F00805AFE7BAF1010F59
:101C780006D1002F65D1049B002B7CD000250CE0F9
:101C8800002FF8D04E485DE04E483B4622464E496C
:101C98001DF07FFF049B002B69D0DFF83081DFF84F
:101CA8003091049F4FF0000A31462046102F28BF7C
:101CB8001027FFF735FF554546DC059B4FF0010A15
:101CC800494620461A78FFF719FF1AF0070F03D183
:101CD80041462046FFF712FF57453CD9059B494628
:101CE800204613F80A20FFF709FF0AF1010ABAF1A2
:101CF800100FEAD14FF0000A36492046FFF7FEFEE2
:101D08005246059B20469A5C334B995C11F0970F1D
:101D1800324908BF2E22FFF7F1FE0AF1010ABAF193
:101D2800100F1DD01AF0070F03D141462046FFF7C8
:101D3800E5FE57455246E4D841462046FFF7DEFE09
:101D4800EBE720485D46A0E7414620460AF1010A34
:101D5800FFF7D4FEAFE722492046FFF7CFFEC4E7DE
:101D6800059B3B440593049BDB1B049399D1BBF172
:101D7800000F7FF442AF204609B0BDE8F04F1EF0D7
:101D88004ABB074A20460549FFF7B8FE38E700BFB7
:101D9800102903081429030868080308952D030867
:101DA8000B2903087C080308392903083F2903087D
:101DB80043290308E8CF0120E4CF01201D290308A7
:101DC8006F04020839040208615100085029030809
:101DD8004829030852290308BF7C0308252603085D
:101DE8004E2903082DE9F0410F8886B04B68054657
:101DF8000C4690468E68C7F382175BB1144A9B1A4B
:101E080043F38F01002921DB2078C0F3C200FFF7DC
:101E1800AFFC03462146608851F8102BC0F30B1025
:101E28000197C2F34A22002A01EB02044FF0000294
:101E380008BF00210092CDE90408CDE90214284624
:101E48003146FFF77BFE06B0BDE8F0810023E1E7ED
:101E5800E402012042F20F73114A8B4273B5044623
:101E680028BF0B460568052168461DF0A7F863687A
:101E78000646042228465B680A491EF0BFFA6368D2
:101E88003246694628465B681EF0B8FA636817222E
:101E980005495B6828461EF0B1FA02B070BD00BF64
:101EA800784203086C2903085429030800210123F8
:101EB800064A904206D8064A01B901231360054B29
:101EC80018607047400801215B00F2E740420F00AC
:101ED800E4CF0120E8CF0120014B036002207047C6
:101EE8009008030813B504461BF022FFC0F307232C
:101EF800064A08210193C0F307430093030E2046C6
:101F08001EF01EFC002002B010BD00BFB02903085F
:101F180010B5044604F0E8FD084A034608212046A7
:101F28001EF00EFC064A204608211EF009FC214638
:101F380004481BF07BFD002010BD00BF4B2A03089E
:101F48006A2A0308511F000870B58EB004460D4672
:101F5800D0F89C602DF0F9FB264B02462EF094F841
:101F680019582846244B002A18BF1346234ACDE99E
:101F78000043234B8C4218BF1346224A08211EF007
:101F8800DFFB28460821D4E90A23CDE9022394F986
:101F98000E301D4A0093237B1EF0D2FB06A9202297
:101FA80020461BF097FD626E0346082100922846E2
:101FB800164A1EF0C5FB05A920462DF0D6FB0346A0
:101FC80030B1134A082128461EF0BAFB0EB070BD86
:101FD800059A64232846B11A4B43B3FBF6F3CDE9BF
:101FE8000021CDE902630B4A334608211EF0A8FB05
:101FF800ECE700BF08000000742A03085029030812
:10200800753D0308772A0308832A0308AF2A0308C3
:10201800C62A0308F32A0308F0B593B0002504463E
:102028001C220AAF29460BA8154E2EF01DF81A22BD
:10203800202138462EF018F8214612481BF0F6FCED
:1020480009AA4FF4006130462DF083FB09996422F8
:102058004FF40063C1F500604243D20ACDE904039E
:10206800CDE9023120460692A6F14003064A08212E
:10207800CDE900571EF064FB284613B0F0BD00BF41
:1020880040B50220712100082A2B030810B5044628
:1020980004F048FD034A0346082120461EF050FB81
:1020A800002010BD732B03082DE9F34117460023C8
:1020B800044601AA0A21B868019301F09FFC019D1A
:1020C800C6B255B12B46154A012120461EF038FBF1
:1020D800019D284602B0BDE8F081042E0AD9334696
:1020E8000F4A012120461EF02BFB204601251EF039
:1020F80044FBEEE77868FFF767FBB0F1000805DA04
:102108007B680121074A20461EF01AFB002133464E
:102118000FFA88F208461EF0D8F8DAE7892B030888
:10212800B02B0308C72B030837B513460022054612
:102138000A21019201AA586801F060FC019C4CB97F
:1021480020EAE0700A2180FB01011CF0EFF820462C
:1021580003B030BD2346034A012128461EF0F0FA99
:10216800019CF4E7E62B0308F0B5044689B00D4658
:10217800D0F89C6007A92DF0F8FA034630B1104A50
:10218800082128461EF0DCFA09B0F0BD20460D4FA4
:102198002DF0DBFA079A6423002818BF0746B11A06
:1021A80028464B43B3FBF6F3CDE90221CDE904639E
:1021B800054A23460821CDE900761EF0C1FAE3E777
:1021C800C62A0308742A0308062C03082DE9F043DD
:1021D80087B005461A4F6846DFF868801BF076FA24
:1021E8001423009E0821184A03FB006628461EF0A7
:1021F800A7FADFF85890009CB44203D3002007B038
:10220800BDE8F08323680BB11A7832B923463A4601
:10221800142101A81CF0D2FE01AB42460821284631
:102228001EF08EFA204614342DF071FA084B094A34
:102238000821002808BF4B4628461EF081FADBE734
:102248008E2D0308932D0308842D03087B2D030886
:10225800752D0308063403088B1E022B2DE9F04167
:1022680007468846144637D81022002160681CF0BB
:1022780041FFB8F1020F064607D12023254A08215D
:1022880038461EF05DFA336816E00A220021A0687D
:102298001CF030FF1F4AC5B2082138462B461EF0F5
:1022A8004FFAB8F1040F1AD0102D0DD0202DEAD016
:1022B800082D0CD13378DBB2174A082138461EF0B6
:1022C8003FFA0020BDE8F08133889BB2F4E7134A57
:1022D800082138461EF034FA6FF01500F2E7102294
:1022E8000021E0681CF006FF0D4A03460446082159
:1022F80038461EF025FA102D06D0202D07D0082DBF
:10230800E5D1E4B23470DCE7A4B23480D9E73460B4
:10231800D7E700BFCC2D0308F72D0308E12D0308EC
:10232800082E03082DE9F04F4FF0FF359146574B23
:10233800012285B00746884620262C46DFF850A1A2
:102348001A60494652464046FEF738FA411C07D102
:102358006A1C52D14F4A012138461EF0F1F91DE09E
:10236800732820D0772833D0612817D1DFF828B117
:1023780010220021DBF800001CF0BCFE05460028F6
:10238800DFD1464B2DF080FE1B58162BD9D1DBF838
:102398000030434A012138461EF0D2F96FF015008B
:1023A80005B0BDE8F08F0022DFF8ECB01146DBF88D
:1023B80000001CF09FFE04460028C2D1374B2DF0C8
:1023C80063FE1B58162BBCD1DBF80030354AE1E719
:1023D8000022DFF8C4B01146DBF800001CF08AFECA
:1023E80006460028ADD12D4B2DF04EFE1B58162B5E
:1023F800A7D1DBF800302C4ACCE7631C01D12B4A6B
:10240800A9E75FFA86F8C6F3C406002C3CD06B46F1
:102418002946A6EB050C1A460CE0B8F1100F1DD0A2
:10242800B8F1200F20D0B8F1080F2AD10878187019
:1024380031443344A64203D80CEB01001028ECD9F0
:10244800102CA1462946384628BF4FF010091035F0
:102458004B46A4EB090401F0C7F8D6E7088880B218
:102468001870000A5870E3E708684FEA102E1870D1
:1024780083F801E04FEA104E000E83F802E0D870AE
:10248800D6E70B4A082167E7204689E720000120A4
:10249800562E03085D2E0308C4CF01200C0000004F
:1024A8001C2E03082F2E0308422E03087A2E030839
:1024B800E12D030870B5104E04460D46337881B1FE
:1024C8002BB10E4A0121BDE870401EF039B9012335
:1024D80033700B4A082120461EF032F9012333706D
:1024E80004E083F001033370002BF2D12946204623
:1024F800BDE870401EF05EB9D7A50220942E0308EF
:10250800CF2E030870B504463C480378182B02D137
:102518000B78112B31D0013A0B468D18AB4225D1DF
:102528008B5C0A780370A2F13003354C092B04D96F
:1025380022F02003413B052B04D823683149CA54B3
:10254800013323602368022B34D1102200212D4847
:102558001CF0D0FD2C4A136803F8010B13602B4ABA
:102568001368013313600023236023E013F8016B21
:10257800182ED3D11E78112ED0D1244D0821244AEB
:1025880020462B681EF0DCF820460021FFF792FF5A
:10259800204B187870B9204A2B681168042B0ADC84
:1025A80008B111602B6013F003010BD11268136896
:1025B8001BBA136070BD0868043B00BA41F8040BED
:1025C8000120EBE75B4203F0030358BF594202299D
:1025D80004D1126813885BBA9BB2EAE70329E9D1F0
:1025E800106802681104C2F3074302F47F4201F441
:1025F8007F010B4313430360DCE700BFD8A502202B
:10260800ECCF0120DAA50220F8CF0120F0CF01207D
:10261800F92E0308D9A50220F4CF01202DE9F84F9F
:1026280000230C462A490646DFF8A88015460B60A9
:10263800DFF8A4902949DFF8A8B088F800300B60CB
:10264800012C2F4655F804AF1ED9022249465046A0
:102658002DF047FC80B99AF80220003A18BF0122F1
:1026680092442049022250462DF03BFC30B9012308
:1026780088F80030013CE3E70022F1E7494650467C
:10268800FDF758FFA8B904370022786811461CF0F6
:10269800C1FC0022144B1146186078681CF0BAFC83
:1026A800124B134918603046FFF704FF0020BDE8BD
:1026B800F88F9AF800202D2AE6D19AF80120002AEE
:1026C800E2D053465A46082130461EF039F8D1E781
:1026D800ECCF0120D9A50220132F0308F0CF012049
:1026E800192F0308162F0308F8CF0120F4CF012073
:1026F8000D25000807B50A482DF009F860B1042334
:10270800084A0749009301231268074800F03CFE75
:10271800002003B05DF804FB6FF01200F9E700BF7A
:1027280008030308500A03088807030810B544681B
:10273800A3604023C4E9001242680821D36402F16F
:102748005803D16202F150011363002314685363E4
:102758001364116153611362C2F8D030C2E90E33B9
:10276800C2E91133C2E90633C2E90933A36823B1C8
:102778009B6C13B1044920469847A3689B6A0BB128
:1027880020469847002010BD952700082DE9F743FB
:1027980004460D4683685B6C03B19847A3685B6B7E
:1027A8000BBB4FF0000905F13008EA6C01A940465F
:1027B8001DF0A8FC0746002836D0A36801999B693C
:1027C8003BB3024620469847064628B33146404662
:1027D8001DF0B8FCB7424FF00109E6D0D5E9013148
:1027E8000020984703E0204698470028D9D1A368DD
:1027F8005B6A63BB05F11007EA6A01A938461DF058
:10280800D5FC064650BB20461DF053FEC5F8D060E7
:102818002FE06FF05706D9E7014640461DF092FCBD
:10282800B9F1000FE3D0D9E71648036813F0060F93
:1028380003D0154A02211DF0C2FDA3689B69002B35
:10284800EED001220DF1030120469847E8E7204623
:1028580098470028CED103B0BDE8F083A36801995A
:102868005B695BB1024620469847014638461DF031
:10287800BCFC0120D5E901319847ECE76FF057011E
:10288800F4E700BF280301207A30030810B58168F7
:102898000446083101F08AFBA1682046024A083143
:1028A800BDE8104001F028BBBC30030838B5836888
:1028B8000446D3F86432DB071DD4C0691EF0F6FA6B
:1028C800606803685B689847054620B9E0681EF0B1
:1028D8004FFCA3681D71A3685B6B13B129462046A2
:1028E8009847A36800222DF0CFFBC3F80C23034BB5
:1028F800185802F06FF96FF00F05ECE708000000B8
:1029080001491DF076BE00BF282B0308F7B5044621
:1029180080680D46D0F864325A0705D500211DF0AD
:102928008CFEE0681EF0F6FBE368DB6873B9002DE7
:1029380039D0A66806F1420738461DF054FE002833
:1029480033D0394606F5A170FDF7FEFDA2680DF1FA
:1029580006032946E06842321EF0DFFB58B9A0683A
:1029680000F5A1714230FDF7EFFDA06842301DF07F
:102978003AFEADF8060020461EF08FF8A368D3F89B
:1029880060329B0603D50A4960691DF032FE204675
:1029980001F0D8F8A268BDF806302046D387A268AF
:1029A80093871EF024F803B0F0BD86F84201CDE706
:1029B800080803082DE9F04FA7B004465422002167
:1029C80011A82DF051FB00232046CDE90533A3685B
:1029D800423302931EF067F820461DF0F1FF10B94C
:1029E8006069FFF78DFFA0681422002100260830D7
:1029F8004FF0FF372DF038FB204600F0C9FFA168E3
:102A0800E068B2468A8F0DF144084231B346354634
:102A1800B1461EF0B9FB20461EF038FC0396DDE9EE
:102A28000532012A6DD0132B6ED85FBBBBF1000FA6
:102A38000AD020461EF04AFCA268142311A942328B
:102A48000DEB030000F058FEB9F1000F0CD099F817
:102A58001130FE2B08D1059B26AA02EB830252F8FF
:102A6800542C0AB101330593A068059D4369002BD6
:102A780040F0B680CEB1C3689E422DD000F1080563
:102A88000D9624E00223029A414606A800F034FE7F
:102A9800D8F8042006990346029231B101290AD1D7
:102AA80048B16C4A20461EF0A6F86FF00705284684
:102AB80027B0BDE8F08F059B002B34D0D8F8000074
:102AC80001F094FA98B166B1A5680D9608350CAE78
:102AD8000FCE0FC533682B6020460125FFF7D6FEC1
:102AE800E5E75D4A012120461EF085F8DDE7059BF4
:102AF800CBB1D8F800202946204601F027FC02284F
:102B080009D1059B132B91D9069B022B8ED1534BD0
:102B18000121534AC6E7032805D0059B4FF0010B56
:102B2800013305937BE7039B33B907AAD8F8001054
:102B380048461DF0CCFE054608F10408013F9DB348
:102B4800EB68BBF1000F08D0F3B120461DF0ABFFD6
:102B580020461DF04CFF434AC4E7ABB1A368AE461C
:102B6800DDF814A003F1080CBEE80F00ACE80F0074
:102B7800DEF80030CCF80030AB682BB96B7CFE2B4C
:102B880004BF2F7C07F1FF37D5F804C0BCF1000F54
:102B980008D0AE460CAEBEE80F000FC6DEF8003017
:102BA80033606646A94603E0059B53B101230393AE
:102BB800069B17B9022B7FF432AF059B01330593AF
:102BC8002DE7A368DB6913B1DB68002BEED1264B38
:102BD8000121264A20460093119B1EF00CF8E5E7D8
:102BE800037EA5EB0A05B3B1417E4FF6FF72FF29BC
:102BF80018BF0A469D4202D313449D420BD98368ED
:102C080001211B4A20461DF0F6FF20466FF01505EE
:102C1800FFF73CFE4BE701211DF004FDA06800F51D
:102C28003E701DF023FDA36811AA29465B69204662
:102C380002EB8A0298470546A0684FF0FF324FF032
:102C4800FF3300F53E701DF0E1FC0021A0681DF087
:102C5800E9FC2CE7CA300308DE3003083F310308DB
:102C6800E22B0308FC3003082B3103081E34030849
:102C78006331030810B50222836804461A71836819
:102C88009B6BBBB91DF072FC8368D3F86432DB041C
:102C98000BD50321084B094A1DF0ADFFA0686FF45E
:102CA800805100F519701DF079FC2046BDE81040F0
:102CB80001F092B810BD00BF7E310308952D0308BE
:102CC8002DE9F04F04468068B1B0012100F5197074
:102CD8001DF055FCA3681B79022B20D10023099312
:102CE800A36860689E6B03681D6909AB0EB3102268
:102CF8001BA9A847099B93B10121A0681DF092FC6C
:102D0800099A1BA92046B0470021A0681DF08AFC3B
:102D1800A3689B6B002BE3D12046FFF7ABFFA068AD
:102D28006FF0010100F5197031B0BDE8F04F1DF0EA
:102D380035BC01220DF12301A847099B002BEED0D9
:102D48009DF923109DF823300029A268C8DB51792A
:102D5800032900F20A83DFE811F004008902A102C6
:102D680008030D2B55D00A2B32D0B2F86412092B68
:102D78006FF3CA01A2F86412A0685FD013D8002BC1
:102D8800AED0082B00F0D7815A1C8949A068D2B26E
:102D98008A5C12F0970F00F0DA8101211DF04DFCDA
:102DA8009DF82310FAE01B2B45D07F2BECD1D0F8EF
:102DB80060329D0794D501211DF03FFCA368D3F82C
:102DC8006032190700F1BF8120461DF056FF87E7E2
:102DD800D2F86412C1F3C70129B1D2F86412C1F361
:102DE800C7010A29D0D1B2F8641263F3CA01A2F864
:102DF8006412A568A98FC1B928461DF01EFCE068B9
:102E08001EF088F96069FFF77BFD2046FFF732FF67
:102E180066E7D2F86412C1F3C7010029E3D0D2F8FB
:102E28006412C1F3C7010D29DCE72046FFF7C2FD94
:102E3800C5F81003E9E70123437151E7D0F8603280
:102E48009A077FF54DAF01211DF0F7FBA068838F2E
:102E5800FF2B3FF445AFC28F00F1420100F5A1708E
:102E680000252DF0D9F8A3681BA90BA8DA8F134405
:102E780083F842511423A26802F5A17200F03CFCC9
:102E88000B9914293FF62CAF30ABDFF828A103EBE0
:102E9800810343F8545CA368DA8F134493F84130F4
:102EA8001AF8033019B11B0752D401294FD1002554
:102EB8000A9530AA0A9B002602EB83033746B046E0
:102EC80053F854BC58461DF08EFB8146049616AA4A
:102ED8004146284600F0ECFC0346002844D1012E68
:102EE800D4F8088068D130AA0A9B02EB830353F810
:102EF800540C1DF078FB08F10802064639462846AE
:102F080000F0D6FC056828461DF06DFB864205D00A
:102F1800821BA919204692B21DF0ADFEA068C38F8E
:102F2800034493F842301AF8031011F0080139D11C
:102F3800D0F86032DF0730D51DF089FB202120460C
:102F480000F014FF0121A0681DF081FBC8E60139DB
:102F580000200CAB1BAA00930AAB01901DF0E3FC08
:102F680005460028A5D1BBE61B684A4659461846BF
:102F780003932CF0B6FF68B9039B1846FDF7ECFAEB
:102F8800049B834238BF0346002E08BF47460136DC
:102F98009BB2049308F1010899E72021204600F02C
:102FA800E5FE9DE6012120461DF053FD98E600BF91
:102FB800BE7C0308BF7C030805907FF691AE30AB5A
:102FC8000A9AB94603EB820252F8543C1846039316
:102FD8001DF009FB059B0690A8F830300596A268FD
:102FE8004946284609F10109083200F061FC039BB3
:102FF800D0F800B04BB1BBF1000F06D0069A1946C5
:1030080058462CF06EFF0028E9D1D4F808A0BBF18F
:10301800000F4ED1AAF830B0059B013B0593DED1D5
:10302800606907F10109FFF76BFC204600F0D4FE48
:1030380030AA0A9B02EB830353F8540C1DF0D3FA11
:10304800394611AA8046284600F032FC0746A06897
:10305800FF22396800F5A1702CF055FF3B684FF648
:10306800FF770393BA4616AA4946284609F1010B89
:1030780000F01EFC002852D0A1680022036801F26B
:10308800411111F801EF985C704503D110B101327C
:103098005245F6D1B8F1000F01D0424507DBBA42DC
:1030A80006F1FF36A8BF3A46012E97B237D0D94667
:1030B800D9E7AF481DF097FA049B00EB0308BAF86C
:1030C8002A301FFA88F81B1A584693FBF8F39BB26C
:1030D80007931DF088FABAF83010A8EB0008079B90
:1030E800481C1FFA88F8B1FBF3F203FB1211AAF887
:1030F800300089B261B99E4B06219E4A2046CDF820
:1031080000B01DF078FD4146204600F0C9FC83E779
:103118005B46994A062120461DF06DFDF3E7002F16
:103128003FF4DEADA7EB08020399204692B2414472
:103138001DF0A1FDD4E5D0F860329E077FF5D0AD33
:1031480001211DF07AFA20461DF0B2FDC8E5D0F83D
:10315800602292077FF5C4AD013B162B3FF6C0AD48
:1031680001A252F823F000BF45330008CD31000812
:10317800D5310008D12D000839330008F331000893
:10318800E92C0008E92C0008E92C0008E92C0008C3
:10319800FB31000803320008E92C00082D32000832
:1031A800E92C000837320008E92C0008E92C00084F
:1031B800E92C0008E92C00083B320008E92C00083B
:1031C8006532000820461DF075FC89E520461DF093
:1031D8006AFC20461DF0F4FB10B96069FFF790FB0C
:1031E8000121A0681DF029FA0FE620461DF06AFCAF
:1031F80076E520461DF06FFC72E5D0F860329F0638
:1032080003D55E4960691DF0F4F9A368D3F860320C
:103218009E0603D55A4960691DF0EBF9204600F077
:10322800DBFD5DE500212046FFF770FB58E5012135
:10323800F9E720461DF031FC20461DF097F90121E1
:10324800A0681DF0FAF9A368D3F860329D067FF5EF
:1032580047AD4C4960691DF0CCF941E5204600F0C6
:10326800EBFC0121A0681DF0E8F939E55B2B02D1E0
:103278000223537134E5D2F86022900706D5622BF9
:1032880008D14FF0FF31204600F020FCA36800224F
:103298005A7125E5662BF9D10121F4E70021517116
:1032A800A268D2F8601289077FF51AAD313B1B2B53
:1032B8003FF616AD01A151F823F000BF41330008D5
:1032C8004D3300086133000835330008E92C000845
:1032D800E92C0008E92C0008E92C0008E92C000872
:1032E800E92C0008E92C0008E92C0008E92C000862
:1032F800E92C0008E92C0008E92C000837320008FE
:103308002D320008F3310008CD310008E92C0008FF
:1033180039330008E92C000845330008E92C000877
:10332800E92C0008E92C00085133000803235371E5
:1033380020461DF0B8FBD3E40323537120461DF04B
:10334800ACFBCDE403235371A068D0F8601201F000
:10335800010181F00101F7E503235371A368D3F854
:1033680060329B077FF5BCAC2EE5002381E700BFE8
:103378004F290308C2310308952D03080D080308D7
:1033880012080308080803082DE9F043044680687A
:10339800884689B0D0F80C1315461F46002967D116
:1033A8004FF445722CF060FEA36822681A60E0684A
:1033B8001DF052FFA06800F53E704FF42A794FF4D3
:1033C8001A762CF03BFBA06830442CF054FDA06822
:1033D8000022012183191036484409F114092CF000
:1033E80020FDB6F52A7FEED1A369002602211E60D2
:1033F80066F38205A06800F519701DF0C0F8A3688F
:1034080050225A851822A3681A85D4F80890D9F84A
:1034180000001DF0E8F889F82C00A3684146164A18
:10342800C3F86052606803681D682346A8470546CC
:10343800D0B9A36801221A71D4E90A010022002335
:1034480004950094CDE906230E234FF400620393FC
:10345800109BCDE90173094B1AF0F4FBA368C3F87C
:103468000C03616A1AF026FB284609B0BDE8F08310
:103478006FF07705F8E700BF19060208DD34000889
:1034880010B5044680680379012B1DD14FF0FF3237
:103498004FF0FF3300F53E701DF0B8F820460821C4
:1034A80000F08CFB20681DF09EF818B1084960698F
:1034B8001DF09FF82046FFF7DDFBA06800F53E7081
:1034C8001DF0D4F8002010BD6FF08500FBE700BFA9
:1034D800272B03082DE9F041044640680E460021D9
:1034E800036815469B68984700284CD126B12A46A0
:1034F8002146E0691DF0C3FC2046FFF7C1FF002804
:1035080041D1224E224FDFF88C80A06800F52A7046
:103518004FF0FF324FF0FF3303211BF099FC0546B3
:10352800A0684FF0FF324FF0FF3300F53E7075B1E1
:103538001DF06CF820462B46174A01211DF05BFB55
:10354800A068BDE8F04100F53E701DF08FB81DF091
:103558005DF83246022120461DF02FF83A462946EA
:1035680020461DF02AF82046424601211DF025F884
:10357800606803685B6903B19847A06800F53E700E
:103588001DF074F8C1E7BDE8F08100BFB528000858
:10359800C92C000879060208C831030810B504468A
:1035A8000C4A08211DF0CCF820460B4A08211DF0D2
:1035B800C7F82046094A08211DF0C2F82046084AE3
:1035C80008211DF0BDF82046064A002100F094FCB1
:1035D800002010BDDF3103081D3203087C320308C8
:1035E800D03203086A330308F8B51E4617460B465F
:1035F8002F4A082104461DF0A3F86EB301253B7835
:103608002C4A082120461DF09BF86A0704D12A4A53
:10361800082120461DF094F8AE4223D97B5D08218D
:10362800244A20461DF08CF80135102DEDD1234A8F
:10363800082120461DF084F8D6B901251E4A082124
:1036480020461DF07DF8AE422B4613D81A4A0821B1
:1036580020461DF075F819E00125194A0821204671
:103668001DF06EF8164A082120461DF069F8DBE7C0
:1036780000252B46FB5C0821124A2046D25C12F03A
:10368800970F114A08BF2E231DF05AF80135102D47
:1036980007D06B07D7D1084A082120461DF050F8FB
:1036A800D1E72046094A0821BDE8F8401DF048B88E
:1036B80080330308482903085029030852290308BE
:1036C8004E290308BF7C030825260308873303080F
:1036D80010B5044613460A460146064801F03CFD6B
:1036E80023691B7923B12046BDE810401DF068B856
:1036F80010BD00BFE10702082DE9F04F002685B094
:10370800074614469946DFF8A4A1B346019106601E
:103718002378002B00F0C6801AF8033013F0080352
:1037280004D004F801BBF3E70026F1E73A68511C1E
:103738003960019941F822403A684A4500F0B28060
:103748001E4621780029E3D0A6B90E4623461C461A
:10375800272E04D05C2E20D0222E40F097802046C1
:103768001DF058F8611C024620462CF063FC2178B5
:103778000029CDD0B142A04604F101041BD1404636
:103788001DF048F82146024640462CF053FC98F8B4
:1037980000604446002ED9D1BAE7651C20461DF0CA
:1037A80039F80246294620462CF044FC66782C4617
:1037B800002ECDD1ACE75C2998F80110D8D1B142E0
:1037C8008C4608D140461DF025F821460246404661
:1037D8002CF030FCB5E7302925D10025022218F855
:1037E80002C0ACF13000C0B2072819D8ED00013290
:1037F800EDB2052A45EA0005F1D1511E4046039273
:10380800414402911DF006F8039A0299023A821A7D
:1038180040462CF00FFC98F8011088F80050A7E7F4
:10382800D2B2022AE9D1BCF1780F2AD100250220B0
:1038380018F80020A2F1300C5FFA8CFCBCF1090FDB
:1038480009D82D01EDB24CEA0505022801D0042261
:10385800D3E70320ECE7A2F1610CBCF1050F05D812
:103868002D01573AEDB21543EDB2EEE7A2F1410C46
:10387800BCF1050F03D82D01373AEDB2F3E7022862
:1038880002D108F1010473E70322B6E71AF80630FB
:103898001B073FF549AF6678631C002E7FF457AFCE
:1038A8001C4635E7304605B0BDE8F08FBF7C0308FD
:1038B80038B50B46154648B91449154A521AB3EBA0
:1038C800920F05D251F82350284638BD84680CB9A8
:1038D8000025F9E70F4A94420AD30F4A944207D2C7
:1038E80018462268294690472B68002BECD1EFE751
:1038F8000A4A944202D30A4A944205D324681422FD
:103908005343E518E358F0E70133F8E7B80703082D
:10391800E4070308F8070308F8070308E40703089F
:10392800F80703082DE9F84307461CF073FF05461E
:1039380030BBBDE8F88354B18AB22C1B013039443E
:10394800AA1AA5B24446384401322CF073FB6B1E08
:103958009E42EEDA304601363B5CB6B219F80330C7
:103968001B07F4D531468BB29D42F0D97B5C19F820
:10397800038018F00808DED001340131A4B2F2E760
:103988000026DFF808903446E1E700BFBF7C030853
:10399800F8B58468054694F8423053B9AB689A8FF5
:1039A800DA87F8BD013A92B2A2872AB984F8422090
:1039B800F4E704F14200104EA28F831813F8013C7B
:1039C800F35C13F00803EDD183549AB210FA83F133
:1039D8001F46013310F802C016F80CC01CF0080F7F
:1039E800F3D1BFB2002FD9D0A68F731CF61B9A1A39
:1039F8002CF020FBA687D1E7BF7C0308F7B5164655
:103A08000278002304462D2A019305D16FF015038F
:103A18000020336003B0F0BD0C4F2CF035FB054699
:103A28000A46C35101A920461BF064FBEB59222B1F
:103A380002D16FF02103EBE7002BE7D1019BA342F2
:103A4800E4D01B78002BE5D0E0E700BF0C000000B5
:103A58008368D3F860329B0603D5024940691CF09D
:103A680090BF70471808030801491CF08ABF00BFBF
:103A7800282B03080A1E0DDC0ED042238168D1F8DA
:103A88006012890608D5002A04494069B8BF524225
:103A98001CF077BF4123F1E7704700BFA333030849
:103AA8000A1E0DDC0ED044238168D1F86012890605
:103AB80008D5002A04494069B8BF52421CF061BFCA
:103AC8004323F1E7704700BFA33303082DE9F04112
:103AD8000C1E064631DA64424FF0FF3524B2A4B218
:103AE800DFF85C80AFB212E0B3680020DA8F03F130
:103AF800420C9B8F114671B9B5F1FF3F00D073B9E5
:103B0800013C891A3046A4B209B21CF0A2FF002C6D
:103B1800EAD1BDE8F0818B4201D1012DF0D01CF82B
:103B280001E018F80EE01EF0070F04D10028E7D1D5
:103B3800394489B2DFE70120FAE70125CFE700BF62
:103B4800BF7C03082DE9F04785680446DFF86490D8
:103B580005F14200FCF700FD002386B295F82C70B1
:103B68009846A268558DED1BB54209DB002E1FDD76
:103B78004233606910491A44BDE8F0471CF001BFA0
:103B88001D44423349462A4492F842A082F84280B2
:103B9800A26860691A441CF0F4FEA3682B4483F8F9
:103BA80042A0A3685B8DDB1B0027F61A2B46D8E7DB
:103BB800BDE8F087E22B0308952D030808290A467B
:103BC80017D8836893F82E10914212D083F82E20CC
:103BD800082A8368D3F8603205D0990609D50549C3
:103BE80040691CF0CEBE9B0603D5034940691CF012
:103BF800C8BE7047AA3303081D08030838B50D4628
:103C080009780446FFF7DAFF6A78072A11D8A3680B
:103C180093F82F1091420CD083F82F20A368D3F883
:103C280060329B0605D560690249BDE838401CF042
:103C3800A8BE38BDB3330308F8B5836804469A8F25
:103C4800002A51D0D98F00294ED0413103F14205C5
:103C58000B441846A84206D3014611F80169202EE4
:103C680039D0A84239D286B2471C9DB2AB1B9BB251
:103C7800591CD21A014438462CF0DCF9A268711B91
:103C88002046938F13FA81F309B29387A3689A8F1A
:103C98001344002283F842201CF0DBFEA368D3F80B
:103CA80060329A0603D5114960691CF06AFE3B46EA
:103CB8000F4A082120461CF09EFF2046FFF7C8FE49
:103CC800A368D3F860329B060ED560690949BDE840
:103CD800F8401CF056BE0846BCE7014611F80169D9
:103CE800202EC0D00846BCE7F8BD00BF2208030854
:103CF800952D0308260803082DE9F04104460D46D2
:103D080017460AB1FFF7A4FEA368DA8FD3F860124A
:103D1800423213444A071FD51846DFF84880FCF79B
:103D28001BFC064696B9A3689A8FDA87A0681CF030
:103D380035FE20B107B115B16069FFF795FE6942FC
:103D4800204609B2BDE8F0411CF083BE41466069D7
:103D5800013E1CF016FEE5E7034A082120461CF048
:103D68004AFFE0E7753D0308952D030813B58368FE
:103D780004468DF80710D3F86022D00722D5D98FD2
:103D88009A8F8A421ED0481C9DF80720D8870B447A
:103D980083F84220A368D3F86012890710D5D3F8B6
:103DA8006032606913F0040F0A4918BF2A221CF018
:103DB800E8FD20461CF004FE10B16069FFF754FED0
:103DC80002B010BD01220DF1070120461CF020FFB2
:103DD800F6E700BF2526030810B583680446094A9C
:103DE80002211B681CF007FFA368D3F860329B0709
:103DF80007D52046FFF7A6FE2046BDE810401CF078
:103E080005BE10BD952D030801491DF0C3B800BFBC
:103E1800282B03082DE9F047054690460E46002951
:103E280065D00024DFF8CC90335D19F803301A0709
:103E38001ED4304606EB040AFCF78EFBAB6880B252
:103E48005A8D001BA2EB0803984213D9514600274C
:103E580011F8010B19F800C01CF0080F02D00A284D
:103E68002DD03B4608EB0700824227D90137EFE700
:103E78000134D9E753460027B84214D013F8012B70
:103E88000A2A19D1686901341CF09AFC51463A464D
:103E980028461CF045FE6869FFF7B6FF41462846EC
:103EA8003C44FFF7FDFD686931191DF073F8686936
:103EB800BDE8F047FFF7A8BF0137DDE71F4668698F
:103EC8003C441CF07DFC3A46514628461CF028FE2E
:103ED800335D19F803301B0707D46869FFF794FFAF
:103EE80041462846FFF7DCFDA3E70134F0E7BDE8CB
:103EF800F08700BFBF7C03082DE9F04F0E46002174
:103F080089B0044617460D4603AA304601F1010858
:103F1800FFF7CEFCB0B995B127B13A460821204643
:103F28001CF069FE00211E4FDFF87890DFF878A0BA
:103F380003AA304601F10108FFF7BAFC60B909B0DD
:103F4800BDE8F08F006810B1FCF706FB80B285422F
:103F5800414638BF0546D7E703688BB11A787AB16E
:103F6800D0F804B04A4608212046CDE900533B4624
:103F78001CF041FEBBF1000F04D16069FFF744FF5C
:103F88004146D5E7524620463B4608211CF033FE01
:103F98006A1D5946204692B2FFF73CFFF0E700BF82
:103FA800D1330308BC33030843290308F7B50F6866
:103FB80005460E46A7B13846FCF7CEFA84B2094B3F
:103FC8002846094A082100933B461CF014FEE21CCF
:103FD8007168284692B203B0BDE8F040FFF71ABFF7
:103FE8003C46ECE7CD330308C331030810B5074955
:103FF8000446FCF79FFA38B105492046FCF79AFABF
:10400800B0FA80F0400910BD0120FCE7C333030873
:10401800C633030810B583680446D3F860329B069C
:1040280003D5064940691CF0C8FFA3685022002048
:104038005A851822A3681A8510BD00BF2A080308EC
:1040480008B583690821034A1B681CF079FB002026
:1040580008BD00BFD43303082DE9F341104A0821F5
:104068000546104C1CF06CFB0F4E0023DFF83C801B
:10407800B44203F1010703D3002002B0BDE8F08188
:10408800626A9BB2082128460192303454F8282CE1
:104098001268009242461CF053FB3B46E8E700BF1B
:1040A800E433030888070308B8070308FC33030848
:1040B800024908B51CF051FB002008BD292B030854
:1040C8007FB5044600250E4EA2680DF10E030121AE
:1040D800E06802F5A1721DF020F8BDF80E00A36893
:1040E80050B103F5A17332460821204600932B46B0
:1040F8001CF026FB0135E7E783F8420104B070BDE8
:104108000D34030810B504461CF04CFB034A034663
:10411800082120461CF014FB002010BD0F2F0308B7
:10412800022907B50DD15368012101930C4B009367
:1041380013680C4A1CF004FB6FF0150003B05DF81F
:1041480004FB83680821084AD3F8603213F0020F91
:10415800064B08BF1346064A1CF0F2FA0020EDE7AA
:10416800243403081B340308173403080C2D0308F0
:104178003934030810B583680446D3F860329A06C8
:1041880003D5074940691CF018FFA368D3F86032CB
:104198009B0603D5034960691CF00FFF002010BD82
:1041A80031080308360803080129F0B5044685B02C
:1041B8000CD05368012101935E4B009313685E4A4B
:1041C8001CF0BEFA6FF0150005B0F0BD8368D3F897
:1041D8006032990603D5594940691CF0EEFE6FF02C
:1041E800F9012046FFF746FCFA2120460025FFF793
:1041F80057FCA0684FF48072294600F5A1708DF82D
:104208000B504FF47A762BF02FFF4D4960691CF064
:10421800D4FE60691CF0D4FA606801220DF10B012C
:1042280003681F6903ABB847039BF3B9013E4FF41A
:104238007A702BF05DFAB6B2002EEDD1A368D3F8F0
:1042480060329B0603D53F4960691CF0B6FEA3683F
:104258005022204603215A851822A3681A853A4A13
:104268001CF06EFA6FF00700AEE79DF80B20A3680C
:104278001B2A52D093F842111B29CDD1522A4CD176
:104288005A19002382F84231A66896F843215B2A1E
:104298002AD106F24310022510F8011F2A460135DB
:1042A8003B29ADB223D1FF2AC8D002F5A17216FA74
:1042B80082F1002211F8010F18BBFA2A86F8420190
:1042C800A16828BFFA22FA2B4A8528BFFA23A268D8
:1042D8001385A368D3F860329A0603D51949606933
:1042E8001CF06BFE00206FE786F84231A6E703EB6F
:1042F80083033039B5F5807F01EB43018BB2CBD115
:104308009CE7013502EB82023038ADB200EB420087
:10431800B5F5807F82B2CDD190E72B440135ADB29F
:1043280083F84221092D7FF677AFA368002283F82E
:10433800422183E7243403081B3403083C0803089C
:1043480084340308400803084A3403082DE9F04F71
:10435800074689B01546894621B110461CF082FFF0
:1043680000285BD1032455E05C463CE029460AF569
:10437800A1702BF0E4FD0646002854D0FCF7ECF8B9
:10438800314682B2601C08F10108013230442BF03A
:1043980051FE2246594630462BF03EFE4FF0200390
:1043A8003355BAF8403001331C44AAF84040002481
:1043B80001994B1C03AA48460193FFF779FA064670
:1043C800E8B10022316828461DF0EFF80028EFD147
:1043D800D6F800B0D7F808A0BBF1000FC4D05846F3
:1043E800FCF7BAF884B2BAF840302344FF2BBDDD9D
:1043F80001242B460D4A032138461CF0FCFBB8F17A
:10440800000F07D0B8682A4600F1400100F5A170F6
:104418001CF036FA204609B0BDE8F08F4FF00008CE
:1044280002244146C5E70224E9E700BF4C390308E6
:1044380070B50368044618682BF069F970B12368F1
:104448001868197901220469856823688A4013432A
:10445800034A23602B68BDE87040184770BD00BF51
:104468000100020070B50368044618682BF04FF984
:1044780078B1236818681979012204698568236866
:104488008A4023EA0203034A23602B68BDE8704090
:10449800184770BD1000010010B50446142000F044
:1044A80099FE054A04604260044A8260044AC26078
:1044B800044A026110BD00BF6D4400083944000879
:1044C800131302081F1302082DE9F843054600AF2D
:1044D8000C46002948D0DFF8A090D9F800305807DA
:1044E80042D06E468AB0A3686A46D1E90001DFF877
:1044F8008CC04FF00508C2E905C0C2E9071342F8AD
:10450800108F00234FF421514846FDF729FAD9F8B6
:104518000030B546590727D08AB06369D4E903014A
:104528006A46DFF85CC0C2E90713C2E905C042F871
:10453800108F00234FF421514846FDF711FAD9F89E
:104548000030B5465A070FD0E3690E4A01214846A4
:104558001BF03EFFD9F800305B0705D0A3690A4A73
:10456800012148461BF034FF2146284619F0CEF8B1
:10457800BD46BDE8F88300BF200301209E3903082B
:10458800CD390308FC3903080B3A030808B5034B77
:104598001B689847BDE8084000F036B87000012055
:1045A80030BFFFF7FDBF00BF124B134A2DE9F041A2
:1045B800D518DFF848800746013DB5FBF3F55D43A4
:1045C8000F4B08EB0304013CB4FBF3F403FB045466
:1045D8000E1B0C4930462BF01FFD7019083E424651
:1045E80000212BF041FD04F10800C7F8A860BDE8E0
:1045F800F08100BF0100000000000000080000007A
:1046080004000000F8070308044B996858698842B9
:1046180003D003494FF080520A60704768A5022012
:1046280004ED00E0F8B5374C06460D4623685B07F5
:1046380003D0354920461CF078FE344B9B6ADF04D2
:1046480051D52368580703D031492E481CF06DFE18
:1046580017202E4B9B6A190507D523685A0703D0E4
:104668002C4928481CF061FE1820284FBB6A9B057E
:1046780019D52368580703D0274922481CF055FE4E
:10468800BB6BBA6A11040DD52268520704D0234ABD
:1046980001211C481BF09CFE26B11C4A936A23F496
:1046A800004393621920194B9B6A5B0507D5236861
:1046B8005F0703D01A4913481CF037FE1A20134B22
:1046C8009A6AD60511D52368590703D015490D48AC
:1046D8001CF02BFE1B200D4A936A43F47F43936220
:1046E80000232B70F8BD1620B3E79B6A9A04F2D515
:1046F80023685B0703D00C4902481CF016FE1C20F7
:10470800E9E700BF20030120393A030800ED00E083
:104718004F3A0308603A0308733A03088C3A0308CF
:10472800A13A0308BC3A0308D43A030810B52D4C43
:1047380023685A0703D02C4920461CF0F6FD2B4B62
:104748009B6A9B014BD52368580703D02849254805
:104758001CF0EBFD1E20254B9B6AD90107D5236869
:104768005A0703D023491F481CF0DFFD1F201F4BA9
:104778009B6A1B0307D52368580703D01E491948AD
:104788001CF0D3FD2120194B9B6A590307D52368D8
:104798005A0703D0194913481CF0C7FD2220134BB0
:1047A8009B6A9B0307D52368590703D014490D4812
:1047B8001CF0BBFD23200D4B9B6ADA0307D5236849
:1047C8005B0703D00F4907481CF0AFFD2420074AB8
:1047D800936A6FEA03436FEA1343936210BD1D2087
:1047E800B9E700BF20030120033B030800ED00E008
:1047F8001B3B03082E3B0308483B0308663B0308A2
:104808008B3B0308A53B03082DE9F047454D894636
:10481800804617462B68590703D0434928461CF0A1
:1048280084FD424B9B6ADA0639D52B685B0703D0B7
:104838003F493C481CF079FD11243C4B9B6A1E07FC
:1048480007D52B68580703D03A4936481CF06DFD48
:104858001224DFF8D8A0DAF82830990721D52B6878
:104868005A0703D034492F481CF05FFDDAF834604A
:10487800DAF828301B0651D52B685C0705D02F4A7B
:104888003346012127481BF0A3FDB9F1000F04D0DE
:10489800264A936A23F080039362132403E01024CA
:1048A800CBE76FF01506214B9B6AD80707D52B6815
:1048B800590703D022491B481CF037FD14241B4B11
:1048C8009B6A9A0607D52B685B0703D01D491548D4
:1048D8001CF02BFD1524154B9A6AD50602D49A6A4A
:1048E80090070AD55B68190507D54146304600F0A0
:1048F80045FA10B180F3098802240C4B9A6A920693
:1049080003D55A6A22F400525A629A6A204642F043
:10491800FF029A6200233B70BDE8F0876FF015062E
:10492800BBE700BF20030120D03B030800ED00E0F7
:10493800E63B0308603A0308193C0308313C0308C6
:10494800473C0308D43A03082DE9F041744B8AB078
:1049580004460025D3F8048000AFC8F3080685F3A1
:104968001188BFF36F8F02F07F43B3F17F4F0AD1F5
:1049780002F00C03082B15D16A480368590702D0C6
:1049880069491CF0D2FC00252C460023FB71F31E5C
:10499800092B00F2A080DFE803F00A92958E9E9E14
:1049A8009E9E9E9812074CBF0C460125EDE75D4E72
:1049B80033685B0703D05D4930461CF0B6FC002322
:1049C800FB71574BDA6A900708D53368590703D04B
:1049D800574954481CF0A9FC00233CE0DA6A002A35
:1049E80004DA33685A07F7D05249F2E7DB6A5B000A
:1049F800F2D53368580703D04F494A481CF095FC54
:104A0800474BA1695A6942F480725A61BFF34F8FCC
:104A1800BFF36F8F5A6931F8021C22F480725A6111
:104A2800BFF34F8FBFF36F8F4DF60272914208D0DC
:104A38009A6AD2B292B3FA1D01212046FFF7E4FE2A
:104A48003BE03368590705D023683C4A01213548C3
:104A58001BF0BEFC2368FA79E2B907F1080604F1F5
:104A6800200C2068083454F8041C3246644503C2FC
:104A78001646F6D17A6A002D4DD0C2F3080121B945
:104A88006FEA52226FEA42227A6207F10801184659
:104A9800FFF71AFD2837BD46BDE8F0819A6A12F47F
:104AA8007F4F04D0F91D0120FFF7BCFD05E09B6A8C
:104AB800B3F5803F90D3FFF739FE0346CBE7FA1DE5
:104AC8000021BAE7F91D0020EEE7164803685A07E7
:104AD80082D01B497EE7134803685B073FF47CAF2D
:104AE80018F4F87F174AE8468AB0174B18BF1346E0
:104AF8006A461649103EC2E905134FF40073D661A1
:104B08001384134B42F8103F00234FF41151FCF764
:104B180027FFC54660E722F4FF7222F00102B3E7DF
:104B280000ED00E020030120943C0308BF3C03088B
:104B3800D63C0308F73C0308053D0308243D030859
:104B4800403D03087B3C0308663C0308643D0308BA
:104B580004000001024A536943F01003536170478F
:104B680000ED00E0EFF30880EFF3098101B572462C
:104B7800FFF7EAFE01BD00BF102080F311880B4843
:104B88004FF0AA014FF404622AF0D5FD07484FF40C
:104B98000461401880F30988EFF314800221084368
:104BA80080F31488BFF36F8F00F0ACF800B50220D3
:104BB800BFF34F8F0549064BCA6802F4E0621343FE
:104BC800CB60BFF34F8F00BFFDE700BF00ED00E0F3
:104BD8000400FA05084B9B6883420BD1EFF3058369
:104BE80043B1064B5A6842F080525A605A6A22F41E
:104BF80000425A622AF0C9BE68A5022000ED00E012
:104C08000A4A6FF00A019368C3F8B0100849C3F85C
:104C1800AC004B6843F080534B60002383F311884A
:104C2800BFF36F8F9368D3F8B000704768A5022070
:104C380000ED00E016498A684FF030001044EFF3A9
:104C4800098C80E8F01F102080F31288BFF36F8F63
:104C5800104F4FF000664A698A603E604FF0A80422
:104C6800141920680C4C2060D2F8AC000023C2F85C
:104C7800AC3080F3118804B5104600F0F3F8BDE8B5
:104C8800044002F1300090E8F01F8CF30988704767
:104C980068A5022004ED00E070D301201EF0040F87
:104CA8000CBFEFF30880EFF30980816911F8021C4B
:104CB8000229FFD001B51CF034FB01BD40B2002829
:104CC80007DB0123410900F01F00024A834042F834
:104CD8002130704700E100E040B2013100284FEA7E
:104CE8000111C9B206DB00F1604000F5614080F8AF
:104CF8000013704700F00F00014B1954704700BFB4
:104D080014ED00E00F4A08B522F07F020E4B9A60BE
:104D1800BFF34F8FBFF36F8FD3F8882022F4700250
:104D2800C3F88820EFF3148323F0040383F3148873
:104D3800BFF36F8F18F0B0FD19F076FE00F066F83B
:104D480018F00AFE0000000800ED00E042F8203CE0
:104D5800203A009B08495360019B21F001019360B0
:104D6800029B9161D3604FF08073D3610023026589
:104D7800C0F8AC30704700BFD51100080A4A034696
:104D8800906878B113F1160FD0F8980005D0A0F10B
:104D980040029A4205D8834203D2814228BF0020AC
:104DA80070470020704700BF68A5022014460B4AD0
:104DB8000D4608B50A4B9060D0F8A8201A6000F09C
:104DC80051F8204685F30988002163B681F31188DC
:104DD800BFF36F8F00220023FCF7F8F968A50220C3
:104DE80070D30120014910220A60704710ED00E0DD
:104DF80072B6404080F31188BFF36F8FBFF34F8FB7
:104E080030BF62B6BFF36F8F704700BF00230448FE
:104E18001021C2180133622B82F80013F9D17047B0
:104E280000E100E001B5EFF30580A0F110004FEAC2
:104E3800C0000449014409C99847BDE80140024936
:104E4800084700009403030811460008024B01219B
:104E5800024A034800F092B8000005200000012033
:104E6800B40D0308D0F898204021054B403A184665
:104E78001A60044AC3E90112012100F089B800BF91
:104E880074D3012000000B1508B503461148D0F86B
:104E98009020C2F30722013A93420AD90E480268C9
:104EA800520703D00D4A01211BF092FA6FF015004A
:104EB80008BDC0F898300A6822F01F021A4342F071
:104EC8001002C0F89C208A6842F00102C0F8A020B5
:104ED8001846EDE700ED00E01C0301207B3D0308C8
:104EE800F0B50E4685B01F4604460025B54210DAD7
:104EF800606828B3AFB1431E18420DD0124803684A
:104F08005B0704D0114A2B4601211BF061FA6FF0B0
:104F18001502104605B0F0BD1F28EFD921680B42D5
:104F2800ECD1236801A901931CF007FAA368034395
:104F3800D0B20393FFF7A8FF10F1160FE7D0421C79
:104F480001350C34D2E700BF1C030120A13D030842
:104F5800044B0522C3F89420BFF34F8FBFF36F8F24
:104F6800704700BF00ED00E0BFF35F8F024B0022E7
:104F7800C3F89420704700BF00ED00E010B5034C63
:104F880001232278FFF7ACFF207010BDFAA502209C
:104F98000B4A08B500231278FFF7A2FF10F1160F8D
:104FA80007D0084A0021D2F89030C3F3072398426B
:104FB80000DB08BDC2F898000130C2F8A010F2E783
:104FC800FAA5022000ED00E053485449F0B5D0F8A6
:104FD800903085B00C68C3F307239C4200F2988098
:104FE800FFF7C2FF49680022944201F10C010DD17C
:104FF8004B4D68464B4F2C70FCF76EFF002406465D
:10500800A64216D10020FFF7A3FF30E0C0F8982091
:1050180051F80C3C23F01F031343013243F01003F3
:10502800C0F89C3051F8043C43F00103C0F8A030AC
:10503800DAE700984FEA041C00EB0411CB683B4008
:10504800B3F5000F52D014D8B3F5001F38D0B3F51C
:10505800800F40D0B3F5801F1AD0334803685B0730
:1050680003D0324A01211BF0AAF96FF0150005B0F0
:10507800F0BDB3F1807F42D0B3F1007FEDD150F89D
:105088000C3088681CF059F94A6840F4802009E01F
:1050980050F80C3088681CF050F940F088504A6885
:1050A80040F43020039001A92878CDE90123FFF7C7
:1050B800EBFE0028D9DB2B78013401332B709FE7F6
:1050C80050F80C3088681CF038F940F088504A686D
:1050D80040F40020E6E750F80C3088681CF02DF901
:1050E80040F0E0604A6840F40030DBE750F80C30EC
:1050F80088681CF022F94A6840F08270D2E750F8BC
:105108000C3088681CF019F94A6840F08870C9E7C3
:105118004FF0FF30ABE700BF00ED00E0C00D030823
:10512800FAA502200000F0FF1C030120C43D03087B
:1051380008B5024B1B689847002008BD80D30120A2
:10514800034B044A1860937843F002039370704746
:1051580080D3012074000120F0B587B007460E46C1
:1051680014460021102268461D462AF07DFF0223BE
:105178002A4621468DF802306846044BCDE904766C
:1051880001931AF01BF807B0F0BD00BF63130208C3
:105198000649074821F00701C1F1005208B502F598
:1051A800A0221AF0B9FC002008BD00BFA7CE02203B
:1051B80084D301204FF0FF324FF0FF33014819F03C
:1051C800D7B900BF84000120014819F093B900BF86
:1051D8008400012038B50546FFF7ECFF0821084890
:1051E8002A461AF09CFB044628B925B1054B0C2227
:1051F8002AF04AFF1A50FFF7E7FF204638BD00BFE4
:1052080084D301200C0000000B0706D5034B1B5C60
:1052180003F00303012B08BF20307047BF7C03084D
:10522800F0B5124E85B0124F124D4FF0FF334FF0CC
:10523800FF3201A9304619F003F90346A0B12A68E4
:105248005207F2D00C4A012128461BF0C1F8ECE7BE
:10525800236813B1019A934202D1636801A8984761
:105268000834BC42F4D3E0E7044CFAE730030120E9
:105278008807030808030120F53D03088007030891
:105288001FB501909DF818008DF809108DF80800D9
:10529800ADF80A200393DDE9082301A9024819F0B3
:1052A80079F805B05DF804FB300301202DE9F041E1
:1052B800054600244FF001080D4E0E4F2B7853FA87
:1052C80084F01F280DDC08FA00F3726933EA020241
:1052D80007D1736157F830301BB107EBC002516832
:1052E800984701346A78E3B29A42E7D2BDE8F08180
:1052F800003C014090D30120044B184400230133A3
:1053080000F8012B9942FADC704700BF5D020120CA
:10531800064B0246064910B4185601230C68934000
:1053280023430B6010BCFFF7C9BC00BF5D0201201E
:10533800003C01401F2806DC034901220B6882401B
:1053480023EA02030B607047003C014003292AD876
:10535800DFE801F0020E141F134B01229968824006
:1053680021EA02019960D96821EA0202DA607047ED
:1053780001220D4B824099681143F3E70A4B012241
:10538800D96882401143D960996821EA02029A607B
:105398007047012303FA00F0034B9A6802439A60AE
:1053A800DA681043D8607047003C01400A4B30B5BA
:1053B80053F830408C4204D103EBC0056D68954228
:1053C80005D034B943F8301003EBC0035A6000200D
:1053D80030BD6FF00F00FBE790D30120034B002294
:1053E80043F8302003EBC0035A60704790D3012084
:1053F800204B10B5186814460B68082B13D0062BE1
:1054080008D883B1023B042B15D8DFE803F0132F2B
:1054180013192300402B11D008D8342B0BD0382B6C
:1054280009D0302B07D06FF0850006E0442B0FD051
:10543800A82BF7E700202060002010BD8008FAE7BD
:1054480000F0A6F81923B0FBF3F04FF4D8735843D3
:105458004008F0E700F09CF81923B0FBF3F04FF494
:10546800D87358430923B0FBF3F0E4E74FF4FA404C
:10547800E1E700BFB801012070B5414C00F0B2F877
:1054880001F066FB3F4AA3683F4DC3F30313D35CA7
:1054980020FA03F613781D41AE4202D2284601F0E5
:1054A80033FC236823F480232360236843F4803388
:1054B8002360334B1A689203FCD55A6F42F00102FD
:1054C8005A675A6F9407FCD59A6802F00C02082AAA
:1054D80017D11A68900707D41A6842F001021A60B7
:1054E800274A13689907FCD5254B9A6822F00302CE
:1054F8009A609A6812F00C0FFBD19A6822F0F002B9
:105508009A601F4C236823F080732360636823F438
:1055180040336360636823F0706343F01063636033
:1055280000F03AF8236843F08073236023689B01F6
:10553800FCD5A36823F0F003A360A36823F003035A
:1055480043F00203A3600E4CA36803F00C03082B7E
:10555800FAD1AE4202D3284601F0D6FB0B4B00200D
:10556800094A1A60A36823F4E05343F4A053A360E4
:10557800A36823F4604343F40043A36070BD00BFF5
:1055880000380240C143030800E6DF0CB8010120DF
:105598000048704740787D010E4B0F495A6811400A
:1055A8000E4A0A435A601A6842F080721A60A3F5DC
:1055B800E4331A6842F480321A605A68D203FCD580
:1055C8001A6842F400321A60054A53689B03FCD5F6
:1055D800704700BF003802400080BCFF196C4000D3
:1055E80000700040064B82B01A6C42F080521A6478
:1055F8001B6C03F080530193019B02B0704700BFFE
:105608000038024008B507482AF081F838B1064842
:10561800FFF796FD0448FBF7D3FD002008BD6FF0A7
:105628001200FBE708030308355600080A2838B5B6
:105638000446074D04D1AB680D2128465B6898479E
:10564800AB68E1B202485B689847204638BD00BFA6
:10565800080303082DE9F843D0F804801C460669BE
:10566800D8F80070D6F8B85007FB021196F8A900D0
:10567800089B002701FB0055DFF86490E188BAB267
:10568800914202D80020BDE8F88396F8A910184680
:10569800A2884A4329462AF0BFFCA18896F8A92087
:1056A8000346514310D000F01F020A44BFF34F8F46
:1056B80001460244C9F868122031501A0028F9DC62
:1056C800BFF34F8FBFF36F8F96F8A9200137D8F833
:1056D800001001FB0255218902FB0133CEE700BF10
:1056E80000ED00E02DE9F84F0C461D46D0F8048087
:1056F80054EA020106690A9FD8F80030E88809D1FF
:10570800A988994206D1D8F80410884202D129897B
:10571800994212D096F8A9104FF0000AD6F8AC902A
:105728004B43DFF894B04C4302FB03444C44EA88F3
:105738001FFA8AF39A4215D84F46D6F8B8309F42D6
:105748000DD006F1BC04204618F0DAFFC6F8B47094
:105758004FF0FF324FF0FF33204618F0A9FF00202A
:10576800BDE8F88FAB88394696F8A92020465A43F9
:105778002AF052FCAA8896F8A9305A4310D004F0AF
:105788001F031344BFF34F8F22462344CBF86822EC
:105798002032991A0029F9DCBFF34F8FBFF36F8FBE
:1057A80096F8A9300AF1010AD8F8002002FB034450
:1057B8002A8903FB0277BAE700ED00E0F7B54668EF
:1057C80007460569B36883B106F108001CF018F8AC
:1057D800041E0ADA584803685F0703D0574A0121B4
:1057E8001AF0EDFD204603B0F0BD33695BB106F158
:1057F80010001CF005F8041E05DA4F4803685E0720
:10580800F0D04F4AEBE701AA0021306A1CF046FCB1
:10581800041E07DB019B00221979186800F066FD59
:10582800041E05DA444803685D07DBD0454AD6E71D
:10583800454C204629F06BFF50B93F4803685C0788
:1058480003D0424A01211AF0BAFD6FF01204C9E7E9
:10585800A368204606F118011B689847041E05DA5C
:10586800354803685907BDD0394AB8E7394B1A6833
:1058780022F080521A605A6822F4800222F03F0215
:1058880042F4800242F019025A60334AD3F8881071
:105898000A4042F0A04242F4C042C3F88820D3F83C
:1058A8008C2022F4403242F40032C3F88C201A686B
:1058B80042F080521A601A689200FCD55A6A42F087
:1058C80080625A625A6A22F080625A624FF4047304
:1058D800A5F8A8300122002105F1BC002AF0B5F88E
:1058E800736A384698474FF020422846136823F0D9
:1058F8000D03136001F05AF9044600287FF472AFD3
:10590800024605F1380128461CF06AFE04460028C4
:105918007FF468AF2A68D2F8043123F00103C2F893
:10592800043101220D4B18642B68DA632A68536B23
:1059380043F00103536355E7EC020120493E030895
:105948007D3E0308B43E0308B4010308CE3E0308B5
:10595800ED3E0308003802403F80FF8F0068014099
:1059680038B5036904465860084D284629F0CFFE2B
:1059780040B161682846AB680C311B68984700EA5B
:10598800E07038BD6FF01200FBE700BFB4010308F8
:10599800F7B517460C461D464668B7F5001F02695D
:1059A80024D101F003020F2304329200934043EA0A
:1059B80091033449DAB2023251F82220190C02EA72
:1059C800134391FAA1F2B2FA82F2D340B2689A4232
:1059D80009D12046FFF7AEFC2046FFF7FFFC002167
:1059E8002046FFF7B3FC002003B0F0BDB7F5800FE9
:1059F80041D025492046FFF7D9FC00283ED1234A4B
:105A08006B46B66892E8030083E80300204819460D
:105A1800826812689047C0B904F003030F22043368
:105A28009B009A4042EA9402D3B2110C9B0003F106
:105A3800804303F59C33986820EA124091FAA1F25A
:105A4800B2FA82F2964006439E60B5F1806F0ED09E
:105A5800B5F1C06F0DD005F17E4359425941490057
:105A68002046FFF773FC2046FFF752FCBBE70121F5
:105A7800F6E70321F4E76FF08500B5E76FF00F0054
:105A8800B2E700BF003801405F1A0208F8070308B0
:105A9800B401030830B504694068C0684568ED0181
:105AA80007D543684A6823F47F0343EA0243436007
:105AB80030BD246B1D4D14F0010F44682AD044F406
:105AC8000064446044682C40234343600B7A9C077D
